{
  "transactions": [
    {
      "hash": "0x5068a16f5bb4561da6f65bd12099054053d03dbfc2e5d4ecf2aa4e8e823c2860",
      "transactionType": "CALL",
      "contractName": null,
      "contractAddress": "0x779877a7b0d9e8603169ddbd7836e478b4624789",
      "function": "transferAndCall(address,uint256,bytes)",
      "arguments": [
        "0x9DdfaCa8183c41ad55329BdeeD9F6A8d53168B1B",
        "3000000000000000000",
        "0x941e62eb876c99ac8aa39fde33e36348b53f6b1b7363c9ed5670e22419559ad7"
      ],
      "transaction": {
        "from": "0xab18a028b431260c318572ee31e7d1441f70ba2b",
        "to": "0x779877a7b0d9e8603169ddbd7836e478b4624789",
        "gas": "0x1c1ff",
        "value": "0x0",
        "input": "0x4000aea00000000000000000000000009ddfaca8183c41ad55329bdeed9f6a8d53168b1b00000000000000000000000000000000000000000000000029a2241af62c000000000000000000000000000000000000000000000000000000000000000000600000000000000000000000000000000000000000000000000000000000000020941e62eb876c99ac8aa39fde33e36348b53f6b1b7363c9ed5670e22419559ad7",
        "nonce": "0x2",
        "chainId": "0xaa36a7"
      },
      "additionalContracts": [],
      "isFixedGasLimit": false
    }
  ],
  "receipts": [
    {
      "status": "0x1",
      "cumulativeGasUsed": "0x1413204",
      "logs": [
        {
          "address": "0x779877a7b0d9e8603169ddbd7836e478b4624789",
          "topics": [
            "0xddf252ad1be2c89b69c2b068fc378daa952ba7f163c4a11628f55a4df523b3ef",
            "0x000000000000000000000000ab18a028b431260c318572ee31e7d1441f70ba2b",
            "0x0000000000000000000000009ddfaca8183c41ad55329bdeed9f6a8d53168b1b"
          ],
          "data": "0x00000000000000000000000000000000000000000000000029a2241af62c0000",
          "blockHash": "0x2f339d70c9eadabcb48736c933a0c0a2a211baf63b298164caa53223e9ae3155",
          "blockNumber": "0x66a395",
          "transactionHash": "0x5068a16f5bb4561da6f65bd12099054053d03dbfc2e5d4ecf2aa4e8e823c2860",
          "transactionIndex": "0x7c",
          "logIndex": "0x10e",
          "removed": false
        },
        {
          "address": "0x779877a7b0d9e8603169ddbd7836e478b4624789",
          "topics": [
            "0xe19260aff97b920c7df27010903aeb9c8d2be5d310a2c67824cf3f15396e4c16",
            "0x000000000000000000000000ab18a028b431260c318572ee31e7d1441f70ba2b",
            "0x0000000000000000000000009ddfaca8183c41ad55329bdeed9f6a8d53168b1b"
          ],
          "data": "0x00000000000000000000000000000000000000000000000029a2241af62c000000000000000000000000000000000000000000000000000000000000000000400000000000000000000000000000000000000000000000000000000000000020941e62eb876c99ac8aa39fde33e36348b53f6b1b7363c9ed5670e22419559ad7",
          "blockHash": "0x2f339d70c9eadabcb48736c933a0c0a2a211baf63b298164caa53223e9ae3155",
          "blockNumber": "0x66a395",
          "transactionHash": "0x5068a16f5bb4561da6f65bd12099054053d03dbfc2e5d4ecf2aa4e8e823c2860",
          "transactionIndex": "0x7c",
          "logIndex": "0x10f",
          "removed": false
        },
        {
          "address": "0x9ddfaca8183c41ad55329bdeed9f6a8d53168b1b",
          "topics": [
            "0x1ced9348ff549fceab2ac57cd3a9de38edaaab274b725ee82c23e8fc8c4eec7a",
            "0x941e62eb876c99ac8aa39fde33e36348b53f6b1b7363c9ed5670e22419559ad7"
          ],
          "data": "0x000000000000000000000000000000000000000000000000000000000000000000000000000000000000000000000000000000000000000029a2241af62c0000",
          "blockHash": "0x2f339d70c9eadabcb48736c933a0c0a2a211baf63b298164caa53223e9ae3155",
          "blockNumber": "0x66a395",
          "transactionHash": "0x5068a16f5bb4561da6f65bd12099054053d03dbfc2e5d4ecf2aa4e8e823c2860",
          "transactionIndex": "0x7c",
          "logIndex": "0x110",
          "removed": false
        }
      ],
      "logsBloom": "0x00000004000000800000000008000000000000000020000000000000020000000000000000000000000000000000000000000000000000000000000000000000000000000000000000000008000000000000000000000000000020000020000008000000000000000000000000000000000000000000000000000010000040000000000000000000000000210000800000000020000000000000000000000000000000000000000000000000010000000000000000000000000004000000000000000002000000000000000000000000000000000000000100010000000000000010000000000000801000000000000000000800000000000000000000000000",
      "type": "0x2",
      "transactionHash": "0x5068a16f5bb4561da6f65bd12099054053d03dbfc2e5d4ecf2aa4e8e823c2860",
      "transactionIndex": "0x7c",
      "blockHash": "0x2f339d70c9eadabcb48736c933a0c0a2a211baf63b298164caa53223e9ae3155",
      "blockNumber": "0x66a395",
      "gasUsed": "0x133b1",
      "effectiveGasPrice": "0x84d333665",
      "from": "0xab18a028b431260c318572ee31e7d1441f70ba2b",
      "to": "0x779877a7b0d9e8603169ddbd7836e478b4624789",
      "contractAddress": null
    }
  ],
  "libraries": [],
  "pending": [],
  "returns": {},
  "timestamp": 1726825900,
  "chain": 11155111,
  "commit": "8d57ef8"
}